:0400000063EF00F0BA
:100008001182FACF01F0FBCF02F0E9CF03F0EACF7B
:1000180004F0E1CF05F0E2CF06F0D9CF07F0DACF50
:1000280008F0F3CF09F0F4CF0AF0F6CF0BF0F7CFD2
:100038000CF0F8CF0DF0F5CF0EF0F2A012D0F29040
:10004800D00EE82EFED700F080B405D01004D8A456
:1000580002D0010E0F1A80B402D0000E01D0010E9A
:10006800106EF2A40ED0F2940F04D8A406D0D89043
:100078008B32D8A006D08B8604D0D8908B368BB81C
:100088008B800EC0F5FF0DC0F8FF0CC0F7FF0BC04A
:10009800F6FF0AC0F4FF09C0F3FF08C0DAFF07C083
:1000A800D9FF06C0E2FF05C0E1FF04C0EAFF03C0B4
:1000B800E9FF02C0FBFF01C0FAFF1192110079EFBE
:1000C80000F0220ED36E000E946E92847E94010E80
:1000D8000F6E080E8B6E7784F19EC70ED56EF28A6E
:1000E800F2867984D09EF28EFFD7106A1190119211
:0600F800000165EF00F0BD
:020000040020DA
:08000000FFFFFFFFFFFFFFFF00
:020000040030CA
:0E000000FF28191EFF0001FF03C003E00340AC
:00000001FF
