:040000004DEF00F0D0
:100008001082FACF01F0FBCF02F0E9CF03F0EACF7C
:1000180004F0E1CF05F0E2CF06F0D9CF07F0DACF50
:1000280008F0F3CF09F0F4CF0AF0F6CF0BF0F7CFD2
:100038000CF0F8CF0DF0F5CF0EF0F2A00CD0F29046
:10004800D00EE82EFED700F0805080B402D0000E0B
:1000580001D0010E0F6E0EC0F5FF0DC0F8FF0CC0E9
:10006800F7FF0BC0F6FF0AC0F4FF09C0F3FF08C092
:10007800DAFF07C0D9FF06C0E2FF05C0E1FF04C0F0
:10008800EAFF03C0E9FF02C0FBFF01C0FAFF1092BC
:10009800110061EF00F0220ED36E000E946E928470
:1000A8007E9492807E90090E8B6E77847780F19E85
:1000B800F2867984D09EF28EFFD70F6A1090109244
:0600C80000014FEF00F003
:020000040020DA
:08000000FFFFFFFFFFFFFFFF00
:020000040030CA
:0E000000FF28191EFF0001FF03C003E00340AC
:00000001FF
