:040000005EEF00F0BF
:100008001B82FACF03F0FBCF04F0E9CF05F0EACF6B
:1000180006F0E1CF07F0E2CF08F0D9CF09F0DACF48
:100028000AF0F3CF0BF0F4CF0CF0F6CF0DF0F7CFCA
:100038000EF0F8CF0FF0F5CF10F0F290D00EE82EBA
:10004800FED700F080B404D01904D8B491EC00F0C5
:1000580080B402D0000E01D0010E196E80B604D013
:100068001A04D8B460EC00F080A602D0010E01D0CA
:10007800000E1A6EAEEC00F010C0F5FF0FC0F8FFCE
:100088000EC0F7FF0DC0F6FF0CC0F4FF0BC0F3FF66
:100098000AC0DAFF09C0D9FF08C0E2FF07C0E1FFC4
:1000A80006C0EAFF05C0E9FF04C0FBFF03C0FAFF72
:1000B8001B921100E7EF00F0110E1724D96E000E05
:1000C8001820DA6E010EDF6E1550171811E1165060
:1000D8001818D8A40DD0C3EC00F0110E0124D96E65
:1000E800000E0220DA6EDF50D8B402D0154A162A64
:1000F800174A182A040E17181810D8A404D0000E8E
:10010800186E000E176E040E15181610D8A41200DB
:10011800000E166E000E156E1200110E1524D96E03
:10012800000E1620DA6EDF50D8B41200110E152416
:10013800D96E000E1620DA6E000EDF6E154A162AEA
:10014800040E15181610D8A41200000E166E000E14
:10015800156E120011B002D08B9001D08B8012B0B6
:1001680002D08B9201D08B8213B002D08B9401D035
:100178008B8414B002D08B9601D08B86120018BEE7
:1001880006D018500BE1030E175CD8B007D0010E4B
:100198001724016E000E1820026E1200000E026E67
:1001A800000E016E1200220ED36E000E946E928421
:1001B8007E94000E8B6E7784F19EF2867984798620
:1001C800D09EF28EFFD700EE11F00A0EEE6AE80616
:0C01D800FDE11B901B920001D7EF00F02E
:020000040020DA
:08000000FFFFFFFFFFFFFFFF00
:020000040030CA
:0E000000FF28191EFF0001FF03C003E00340AC
:00000001FF
